:0400000014EF3FF0CA
:107E1E0024EC3FF01BEC3FF012000C6A0B6A000ED4
:107E2E00F86E0001B1EF3FF0600ED36E000ED26E11
:107E3E00000E9B6E000E9A6E1200000E896E000EE2
:107E4E008A6E000E8B6EC00E926E9368C00E946E8C
:107E5E001F0E0F015D6F030E5C6F000E5B6FF18ED8
:107E6E001200000E066E000E056E58EF3FF0898A66
:107E7E00060E046E130E036EAE0EE82EFED7032E04
:107E8E00FCD7042EFAD7899A060E046E130E036ED3
:107E9E00AE0EE82EFED7032EFCD7042EFAD7054AD7
:107EAE00062A0150055C02500658D8A061EF3FF03B
:107EBE0063EF3FF03EEF3FF012008AEF3FF0899004
:107ECE00899289948996B0EF3FF08980899289943E
:107EDE008996B0EF3FF08990898289948996B0EFA8
:107EEE003FF08980898289948996B0EF3FF089901E
:107EFE00899289848996B0EF3FF08980899289842E
:107F0E008996B0EF3FF001C003F002C004F00450B8
:107F1E00000AD8B495EF3FF0B0EF3FF00350000ADF
:107F2E00D8B466EF3FF0010AD8B46CEF3FF0030A05
:107F3E00D8B472EF3FF0010AD8B478EF3FF0070AD9
:107F4E00D8B47EEF3FF0010AD8B484EF3FF0B0EF23
:107F5E003FF012000FEC3FF0000E0A6E000E096E9D
:107F6E00000E026E050E016E38EC3FF081B0C2EFCE
:107F7E003FF0C4EF3FF0F8EF3FF009500A10D8A4DD
:107F8E00CBEF3FF0CDEF3FF0BDEF3FF00BC001F078
:107F9E000CC002F064EC3FF00B4A0C2A0CBEE1EF71
:107FAE003FF00C5009E1060E0B5CD8A0E1EF3FF05C
:107FBE00E3EF3FF0E7EF3FF0000E0C6E000E0B6E9E
:107FCE00000E0A6E010E096E070E086E580E076E31
:107FDE005A0EE82EFED7072EFCD7082EFAD7BDEF85
:107FEE003FF0000E0A6E000E096EBDEF3FF000EF7F
:027FFE0000F091
:020000040020DA
:08000000FFFFFFFFFFFFFFFF00
:020000040030CA
:0E00000015027F7CFF8991FF0FC00FE00F40BB
:00000001FF
