:04000000FFEF3EF0E0
:107DF4000FEC3FF006EC3FF012000C6A0B6A000E29
:107E0400F86E00019CEF3FF0600ED36E000ED26E50
:107E1400000E9B6E000E9A6E1200000E896E000E0C
:107E24008A6E000E8B6EC00E926E9368C00E946EB6
:107E34001F0E0F015D6F030E5C6F000E5B6FF18E02
:107E44001200000E066E000E056E43EF3FF0898AA5
:107E5400060E046E130E036EAE0EE82EFED7032E2E
:107E6400FCD7042EFAD7899A060E046E130E036EFD
:107E7400AE0EE82EFED7032EFCD7042EFAD7054A01
:107E8400062A0150055C02500658D8A04CEF3FF07A
:107E94004EEF3FF029EF3FF0120075EF3FF089906D
:107EA4008992899489969BEF3FF08980899289947D
:107EB40089969BEF3FF089908982899489969BEFFC
:107EC4003FF089808982899489969BEF3FF089905D
:107ED4008992898489969BEF3FF08980899289846D
:107EE40089969BEF3FF001C003F002C004F00450F8
:107EF400000AD8B480EF3FF09BEF3FF00350000A34
:107F0400D8B451EF3FF0010AD8B457EF3FF0030A59
:107F1400D8B45DEF3FF0010AD8B463EF3FF0070A2D
:107F2400D8B469EF3FF0010AD8B46FEF3FF09BEF8C
:107F34003FF01200FAEC3EF0000E0A6E000E096EDD
:107F4400000E026E050E016E23EC3FF081B0ADEF22
:107F54003FF0AFEF3FF0F6EF3FF009500A10D8A41E
:107F6400B6EF3FF0B8EF3FF0A8EF3FF00BC001F0E1
:107F74000CC002F04FEC3FF00B4A0C2A0CBECCEFC5
:107F84003FF00C5009E1060E0B5CD8A0CCEF3FF09B
:107F9400CEEF3FF0D2EF3FF0000E0C6E000E0B6EF2
:107FA400070E086E580E076E5A0EE82EFED7072EDF
:107FB400FCD7082EFAD709040A10D8A4E4EF3FF03E
:107FC400E6EF3FF0FCEF3FF00B4A0C2A1A0E086E66
:107FD4005E0E076E6E0EE82EFED7072EFCD7082E17
:107FE400FAD700D0A8EF3FF0000E0A6E000E096E1B
:0C7FF400A8EF3FF0A8EF3FF000EF00F016
:020000040020DA
:08000000FFFFFFFFFFFFFFFF00
:020000040030CA
:0E00000015027F7CFF8991FF0FC00FE00F40BB
:00000001FF
